{
  "contractName": "WE",
  "abi": [
    {
      "inputs": [
        {
          "internalType": "uint256",
          "name": "numOfcandidates",
          "type": "uint256"
        },
        {
          "internalType": "uint256",
          "name": "numOfvoters",
          "type": "uint256"
        }
      ],
      "payable": false,
      "stateMutability": "nonpayable",
      "type": "constructor"
    },
    {
      "constant": true,
      "inputs": [
        {
          "internalType": "uint256",
          "name": "",
          "type": "uint256"
        }
      ],
      "name": "Candidates",
      "outputs": [
        {
          "internalType": "uint256",
          "name": "id",
          "type": "uint256"
        },
        {
          "internalType": "string",
          "name": "nick_name",
          "type": "string"
        },
        {
          "internalType": "uint256",
          "name": "votes",
          "type": "uint256"
        }
      ],
      "payable": false,
      "stateMutability": "view",
      "type": "function"
    },
    {
      "constant": true,
      "inputs": [
        {
          "internalType": "uint256",
          "name": "",
          "type": "uint256"
        }
      ],
      "name": "Voters",
      "outputs": [
        {
          "internalType": "uint256",
          "name": "id",
          "type": "uint256"
        },
        {
          "internalType": "string",
          "name": "nick_name",
          "type": "string"
        },
        {
          "internalType": "uint256",
          "name": "eth",
          "type": "uint256"
        }
      ],
      "payable": false,
      "stateMutability": "view",
      "type": "function"
    },
    {
      "constant": true,
      "inputs": [],
      "name": "nOc",
      "outputs": [
        {
          "internalType": "uint256",
          "name": "",
          "type": "uint256"
        }
      ],
      "payable": false,
      "stateMutability": "view",
      "type": "function"
    },
    {
      "constant": true,
      "inputs": [],
      "name": "nOc_counter",
      "outputs": [
        {
          "internalType": "uint256",
          "name": "",
          "type": "uint256"
        }
      ],
      "payable": false,
      "stateMutability": "view",
      "type": "function"
    },
    {
      "constant": true,
      "inputs": [],
      "name": "nOv_counter",
      "outputs": [
        {
          "internalType": "uint256",
          "name": "",
          "type": "uint256"
        }
      ],
      "payable": false,
      "stateMutability": "view",
      "type": "function"
    },
    {
      "constant": false,
      "inputs": [
        {
          "internalType": "string",
          "name": "_name",
          "type": "string"
        }
      ],
      "name": "reg_candidate",
      "outputs": [],
      "payable": false,
      "stateMutability": "nonpayable",
      "type": "function"
    },
    {
      "constant": false,
      "inputs": [],
      "name": "reg_voter",
      "outputs": [],
      "payable": true,
      "stateMutability": "payable",
      "type": "function"
    },
    {
      "constant": false,
      "inputs": [
        {
          "internalType": "uint256",
          "name": "candidate_id",
          "type": "uint256"
        }
      ],
      "name": "vote",
      "outputs": [],
      "payable": false,
      "stateMutability": "nonpayable",
      "type": "function"
    }
  ],
  "bytecode": "0x608060405234801561001057600080fd5b506040516107893803806107898339818101604052604081101561003357600080fd5b810190808051906020019092919080519060200190929190505050336000806101000a81548173ffffffffffffffffffffffffffffffffffffffff021916908373ffffffffffffffffffffffffffffffffffffffff160217905550806003819055508160048190555050506106dc806100ad6000396000f3fe60806040526004361061007b5760003560e01c80636e10cc0c1161004e5780636e10cc0c146101b25780637e2073ba1461027a5780639c35d98b146102a5578063b8ce96fd146103675761007b565b80630121b93f1461008057806301c955ba146100bb578063290e9212146100c557806364fc0b1c14610187575b600080fd5b34801561008c57600080fd5b506100b9600480360360208110156100a357600080fd5b8101908080359060200190929190505050610392565b005b6100c3610395565b005b3480156100d157600080fd5b506100fe600480360360208110156100e857600080fd5b8101908080359060200190929190505050610397565b6040518084815260200180602001838152602001828103825284818151815260200191508051906020019080838360005b8381101561014a57808201518184015260208101905061012f565b50505050905090810190601f1680156101775780820380516001836020036101000a031916815260200191505b5094505050505060405180910390f35b34801561019357600080fd5b5061019c610459565b6040518082815260200191505060405180910390f35b3480156101be57600080fd5b50610278600480360360208110156101d557600080fd5b81019080803590602001906401000000008111156101f257600080fd5b82018360208201111561020457600080fd5b8035906020019184600183028401116401000000008311171561022657600080fd5b91908080601f016020809104026020016040519081016040528093929190818152602001838380828437600081840152601f19601f82011690508083019250505050505050919291929050505061045f565b005b34801561028657600080fd5b5061028f610534565b6040518082815260200191505060405180910390f35b3480156102b157600080fd5b506102de600480360360208110156102c857600080fd5b810190808035906020019092919050505061053a565b6040518084815260200180602001838152602001828103825284818151815260200191508051906020019080838360005b8381101561032a57808201518184015260208101905061030f565b50505050905090810190601f1680156103575780820380516001836020036101000a031916815260200191505b5094505050505060405180910390f35b34801561037357600080fd5b5061037c6105fc565b6040518082815260200191505060405180910390f35b50565b565b6002602052806000526040600020600091509050806000015490806001018054600181600116156101000203166002900480601f0160208091040260200160405190810160405280929190818152602001828054600181600116156101000203166002900480156104495780601f1061041e57610100808354040283529160200191610449565b820191906000526020600020905b81548152906001019060200180831161042c57829003601f168201915b5050505050908060020154905083565b60045481565b6000809054906101000a900473ffffffffffffffffffffffffffffffffffffffff1673ffffffffffffffffffffffffffffffffffffffff163373ffffffffffffffffffffffffffffffffffffffff16146104b857600080fd5b600560008154809291906001019190505550604051806060016040528060055481526020018281526020016000815250600260006005548152602001908152602001600020600082015181600001556020820151816001019080519060200190610523929190610602565b506040820151816002015590505050565b60055481565b6001602052806000526040600020600091509050806000015490806001018054600181600116156101000203166002900480601f0160208091040260200160405190810160405280929190818152602001828054600181600116156101000203166002900480156105ec5780601f106105c1576101008083540402835291602001916105ec565b820191906000526020600020905b8154815290600101906020018083116105cf57829003601f168201915b5050505050908060020154905083565b60065481565b828054600181600116156101000203166002900490600052602060002090601f016020900481019282601f1061064357805160ff1916838001178555610671565b82800160010185558215610671579182015b82811115610670578251825591602001919060010190610655565b5b50905061067e9190610682565b5090565b6106a491905b808211156106a0576000816000905550600101610688565b5090565b9056fea265627a7a723158207549a1b154fadc351cdbda132250deff44f9256f7b090077836c391e8b18d07264736f6c63430005100032",
  "source": "pragma solidity 0.5.16;\n\ncontract WE {\n   address owner;\n\n   modifier onlyOwner {\n      require(msg.sender == owner);\n      _;\n   }\n\n   struct Candidate{\n      uint id;\n      string nick_name;\n      uint votes;\n   }\n\n   struct Voter{\n      uint id;\n      string nick_name;\n      uint eth;\n   }\n   enum state{REG_CANDIDATES,REG_VOTERS, VOTING, FINISH}\n\n\n   mapping(uint => Voter) public Voters;\n   mapping(uint => Candidate) public Candidates;\n   uint nOv;\n   uint public nOc;\n\n   function reg_candidate(string memory _name) public onlyOwner {\n      //candidates should be added\n      nOc_counter++;\n      Candidates[nOc_counter]=Candidate(nOc_counter,_name, 0);\n   }\n\n   function reg_voter() public payable {\n      //register an voter and gets 1 eth for guarantee\n\n\n   }\n\n   function vote(uint candidate_id) public {\n      //add votes for the selected candidate\n   }\n   uint public nOc_counter;\n   uint public nOv_counter;\n\n\n   constructor(uint numOfcandidates, uint numOfvoters) public {\n      owner=msg.sender;\n      nOv=numOfvoters;\n      nOc=numOfcandidates;\n   \n   }\n\n\n\n}\n\n",
  "sourcePath": "/media/reza/Tempo/blockchain-developer-bootcamp-final-project/contracts/WE.sol",
  "compiler": {
    "name": "solc",
    "version": "0.5.16+commit.9c3226ce.Emscripten.clang"
  },
  "schemaVersion": "3.4.3",
  "updatedAt": "2021-11-15T22:08:34.633Z",
  "networkType": "ethereum",
  "devdoc": {
    "methods": {}
  },
  "userdoc": {
    "methods": {}
  }
}